{
  "contractName": "SimpleStorage",
  "abi": [
    {
      "constant": false,
      "inputs": [
        {
          "name": "x",
          "type": "uint256"
        }
      ],
      "name": "set",
      "outputs": [],
      "payable": false,
      "stateMutability": "nonpayable",
      "type": "function",
      "signature": "0x60fe47b1"
    },
    {
      "constant": true,
      "inputs": [],
      "name": "get",
      "outputs": [
        {
          "name": "",
          "type": "uint256"
        }
      ],
      "payable": false,
      "stateMutability": "view",
      "type": "function",
      "signature": "0x6d4ce63c"
    }
  ],
  "bytecode": "0x608060405234801561001057600080fd5b5060d08061001f6000396000f3fe60806040526004361060485763ffffffff7c010000000000000000000000000000000000000000000000000000000060003504166360fe47b18114604d5780636d4ce63c146075575b600080fd5b348015605857600080fd5b50607360048036036020811015606d57600080fd5b50356099565b005b348015608057600080fd5b506087609e565b60408051918252519081900360200190f35b600055565b6000549056fea165627a7a72305820fb0646b6ebbd68503515b8b191880187025ea3af7794182d7de77f403fe791480029",
  "source": "\npragma solidity ^0.5.0;\n\ncontract SimpleStorage {\n  uint storedData;\n\n  function set(uint x) public {\n    storedData = x;\n  }\n\n  function get() public view returns (uint) {\n    return storedData;\n  }\n}\n",
  "sourcePath": "/home/diego/src/github/dmerniestic1987/MTIC2018_GUI_Ejemplos/react/crowfounding-dapp-next/contracts/SimpleStorage.sol",
  "compiler": {
    "name": "solc",
    "version": "0.5.0+commit.1d4f565a.Emscripten.clang"
  },
  "schemaVersion": "3.0.0",
  "updatedAt": "2019-01-29T22:11:07.651Z",
  "devdoc": {
    "methods": {}
  },
  "userdoc": {
    "methods": {}
  }
}