{
  "contractName": "FactoryProyectoInversion",
  "abi": [
    {
      "constant": true,
      "inputs": [
        {
          "name": "",
          "type": "uint256"
        }
      ],
      "name": "contratosDeployados",
      "outputs": [
        {
          "name": "",
          "type": "address"
        }
      ],
      "payable": false,
      "stateMutability": "view",
      "type": "function",
      "signature": "0x1fe8c078"
    },
    {
      "constant": true,
      "inputs": [],
      "name": "owner",
      "outputs": [
        {
          "name": "",
          "type": "address"
        }
      ],
      "payable": false,
      "stateMutability": "view",
      "type": "function",
      "signature": "0x8da5cb5b"
    },
    {
      "constant": false,
      "inputs": [
        {
          "name": "newOwner",
          "type": "address"
        }
      ],
      "name": "transferOwnership",
      "outputs": [],
      "payable": false,
      "stateMutability": "nonpayable",
      "type": "function",
      "signature": "0xf2fde38b"
    },
    {
      "anonymous": false,
      "inputs": [
        {
          "indexed": true,
          "name": "previousOwner",
          "type": "address"
        },
        {
          "indexed": true,
          "name": "newOwner",
          "type": "address"
        }
      ],
      "name": "OwnershipTransferred",
      "type": "event",
      "signature": "0x8be0079c531659141344cd1fd0a4f28419497f9722a3daafe3b4186f6b6457e0"
    },
    {
      "constant": false,
      "inputs": [
        {
          "name": "_contribucionMinima",
          "type": "uint256"
        }
      ],
      "name": "crarProyectoInversion",
      "outputs": [
        {
          "name": "",
          "type": "address"
        }
      ],
      "payable": false,
      "stateMutability": "nonpayable",
      "type": "function",
      "signature": "0x7022afe3"
    },
    {
      "constant": true,
      "inputs": [],
      "name": "obtenerContratosPI",
      "outputs": [
        {
          "name": "",
          "type": "address[]"
        }
      ],
      "payable": false,
      "stateMutability": "view",
      "type": "function",
      "signature": "0x1166f1b8"
    }
  ],
  "bytecode": "0x6080604052336000806101000a81548173ffffffffffffffffffffffffffffffffffffffff021916908373ffffffffffffffffffffffffffffffffffffffff160217905550611d8f806100536000396000f3fe60806040526004361061006d576000357c0100000000000000000000000000000000000000000000000000000000900463ffffffff1680631166f1b8146100725780631fe8c078146100de5780637022afe3146101595780638da5cb5b146101d4578063f2fde38b1461022b575b600080fd5b34801561007e57600080fd5b5061008761027c565b6040518080602001828103825283818151815260200191508051906020019060200280838360005b838110156100ca5780820151818401526020810190506100af565b505050509050019250505060405180910390f35b3480156100ea57600080fd5b506101176004803603602081101561010157600080fd5b810190808035906020019092919050505061030a565b604051808273ffffffffffffffffffffffffffffffffffffffff1673ffffffffffffffffffffffffffffffffffffffff16815260200191505060405180910390f35b34801561016557600080fd5b506101926004803603602081101561017c57600080fd5b8101908080359060200190929190505050610348565b604051808273ffffffffffffffffffffffffffffffffffffffff1673ffffffffffffffffffffffffffffffffffffffff16815260200191505060405180910390f35b3480156101e057600080fd5b506101e9610426565b604051808273ffffffffffffffffffffffffffffffffffffffff1673ffffffffffffffffffffffffffffffffffffffff16815260200191505060405180910390f35b34801561023757600080fd5b5061027a6004803603602081101561024e57600080fd5b81019080803573ffffffffffffffffffffffffffffffffffffffff16906020019092919050505061044b565b005b6060600180548060200260200160405190810160405280929190818152602001828054801561030057602002820191906000526020600020905b8160009054906101000a900473ffffffffffffffffffffffffffffffffffffffff1673ffffffffffffffffffffffffffffffffffffffff16815260200190600101908083116102b6575b5050505050905090565b60018181548110151561031957fe5b906000526020600020016000915054906101000a900473ffffffffffffffffffffffffffffffffffffffff1681565b600080823361035561069d565b808381526020018273ffffffffffffffffffffffffffffffffffffffff1673ffffffffffffffffffffffffffffffffffffffff16815260200192505050604051809103906000f0801580156103ae573d6000803e3d6000fd5b509050600081905060018190806001815401808255809150509060018203906000526020600020016000909192909190916101000a81548173ffffffffffffffffffffffffffffffffffffffff021916908373ffffffffffffffffffffffffffffffffffffffff160217905550508092505050919050565b6000809054906101000a900473ffffffffffffffffffffffffffffffffffffffff1681565b606060405190810160405280603781526020017f303033202d20536f6c6f20656c2062656e65666963696172696f20707565646581526020017f207472616e73666572697220656c2070726f796563746f0000000000000000008152506000809054906101000a900473ffffffffffffffffffffffffffffffffffffffff1673ffffffffffffffffffffffffffffffffffffffff163373ffffffffffffffffffffffffffffffffffffffff1614819015156105a1576040517f08c379a00000000000000000000000000000000000000000000000000000000081526004018080602001828103825283818151815260200191508051906020019080838360005b8381101561056657808201518184015260208101905061054b565b50505050905090810190601f1680156105935780820380516001836020036101000a031916815260200191505b509250505060405180910390fd5b50600073ffffffffffffffffffffffffffffffffffffffff168273ffffffffffffffffffffffffffffffffffffffff16141515156105de57600080fd5b8173ffffffffffffffffffffffffffffffffffffffff166000809054906101000a900473ffffffffffffffffffffffffffffffffffffffff1673ffffffffffffffffffffffffffffffffffffffff167f8be0079c531659141344cd1fd0a4f28419497f9722a3daafe3b4186f6b6457e060405160405180910390a3816000806101000a81548173ffffffffffffffffffffffffffffffffffffffff021916908373ffffffffffffffffffffffffffffffffffffffff1602179055505050565b6040516116b6806106ae8339019056fe608060405234801561001057600080fd5b506040516040806116b68339810180604052604081101561003057600080fd5b810190808051906020019092919080519060200190929190505050336000806101000a81548173ffffffffffffffffffffffffffffffffffffffff021916908373ffffffffffffffffffffffffffffffffffffffff160217905550806000806101000a81548173ffffffffffffffffffffffffffffffffffffffff021916908373ffffffffffffffffffffffffffffffffffffffff16021790555081600281905550600060038190555050506115cb806100eb6000396000f3fe6080604052600436106100ae576000357c0100000000000000000000000000000000000000000000000000000000900463ffffffff1680628fe49d146100b3578063129f76a6146100bd57806328569467146101265780633aa6d2081461016157806341e2a54c1461018f57806370764381146102535780638da5cb5b1461027e578063a00ed478146102d5578063b6ca07a914610310578063f2fde38b1461033b578063fd91c7d41461038c575b600080fd5b6100bb61048c565b005b3480156100c957600080fd5b5061010c600480360360208110156100e057600080fd5b81019080803573ffffffffffffffffffffffffffffffffffffffff1690602001909291905050506105ec565b604051808215151515815260200191505060405180910390f35b34801561013257600080fd5b5061015f6004803603602081101561014957600080fd5b810190808035906020019092919050505061060c565b005b61018d6004803603602081101561017757600080fd5b810190808035906020019092919050505061091d565b005b34801561019b57600080fd5b5061023d600480360360608110156101b257600080fd5b8101908080359060200190929190803573ffffffffffffffffffffffffffffffffffffffff169060200190929190803590602001906401000000008111156101f957600080fd5b82018360208201111561020b57600080fd5b8035906020019184600183028401116401000000008311171561022d57600080fd5b9091929391929390505050610d52565b6040518082815260200191505060405180910390f35b34801561025f57600080fd5b5061026861100b565b6040518082815260200191505060405180910390f35b34801561028a57600080fd5b50610293611011565b604051808273ffffffffffffffffffffffffffffffffffffffff1673ffffffffffffffffffffffffffffffffffffffff16815260200191505060405180910390f35b3480156102e157600080fd5b5061030e600480360360208110156102f857600080fd5b8101908080359060200190929190505050611036565b005b34801561031c57600080fd5b50610325611198565b6040518082815260200191505060405180910390f35b34801561034757600080fd5b5061038a6004803603602081101561035e57600080fd5b81019080803573ffffffffffffffffffffffffffffffffffffffff16906020019092919050505061119e565b005b34801561039857600080fd5b506103c5600480360360208110156103af57600080fd5b81019080803590602001909291905050506113f0565b60405180868152602001858152602001841515151581526020018373ffffffffffffffffffffffffffffffffffffffff1673ffffffffffffffffffffffffffffffffffffffff16815260200180602001828103825283818151815260200191508051906020019080838360005b8381101561044d578082015181840152602081019050610432565b50505050905090810190601f16801561047a5780820380516001836020036101000a031916815260200191505b50965050505050505060405180910390f35b600254341015151561052c576040517f08c379a00000000000000000000000000000000000000000000000000000000081526004018080602001828103825260398152602001807f313031202d20496e74656e746120696e766572746972206d656e6f732071756581526020017f206c6120636f6e74726962756369c3b36e206dc3ad6e696d610000000000000081525060400191505060405180910390fd5b600460003373ffffffffffffffffffffffffffffffffffffffff1673ffffffffffffffffffffffffffffffffffffffff16815260200190815260200160002060009054906101000a900460ff161515610592576003600081548092919060010191905055505b6001600460003373ffffffffffffffffffffffffffffffffffffffff1673ffffffffffffffffffffffffffffffffffffffff16815260200190815260200160002060006101000a81548160ff021916908315150217905550565b60046020528060005260406000206000915054906101000a900460ff1681565b600460003373ffffffffffffffffffffffffffffffffffffffff1673ffffffffffffffffffffffffffffffffffffffff16815260200190815260200160002060009054906101000a900460ff1615156106f3576040517f08c379a00000000000000000000000000000000000000000000000000000000081526004018080602001828103825260278152602001807f323030202d205573746564206e6f20657320696e766572736f7220706172612081526020017f6170726f6261720000000000000000000000000000000000000000000000000081525060400191505060405180910390fd5b6001805490508110151561076f576040517f08c379a000000000000000000000000000000000000000000000000000000000815260040180806020018281038252601d8152602001807f32303120656c20494420696e6772657361646f206e6f2065786973746500000081525060200191505060405180910390fd5b60018181548110151561077e57fe5b906000526020600020906005020160040160003373ffffffffffffffffffffffffffffffffffffffff1673ffffffffffffffffffffffffffffffffffffffff16815260200190815260200160002060009054906101000a900460ff16151515610875576040517f08c379a00000000000000000000000000000000000000000000000000000000081526004018080602001828103825260238152602001807f323032202d20557374656420796120766f74c3b320657374612070726f70756581526020017f737461000000000000000000000000000000000000000000000000000000000081525060400191505060405180910390fd5b6001808281548110151561088557fe5b906000526020600020906005020160040160003373ffffffffffffffffffffffffffffffffffffffff1673ffffffffffffffffffffffffffffffffffffffff16815260200190815260200160002060006101000a81548160ff0219169083151502179055506001818154811015156108f957fe5b90600052602060002090600502016001016000815480929190600101919050555050565b606060405190810160405280602281526020017f30303032202d205573746564206e6f206573206c652062656e6566696369617281526020017f696f0000000000000000000000000000000000000000000000000000000000008152506000809054906101000a900473ffffffffffffffffffffffffffffffffffffffff1673ffffffffffffffffffffffffffffffffffffffff163373ffffffffffffffffffffffffffffffffffffffff161481901515610a73576040517f08c379a00000000000000000000000000000000000000000000000000000000081526004018080602001828103825283818151815260200191508051906020019080838360005b83811015610a38578082015181840152602081019050610a1d565b50505050905090810190601f168015610a655780820380516001836020036101000a031916815260200191505b509250505060405180910390fd5b5060018054905082101515610b16576040517f08c379a000000000000000000000000000000000000000000000000000000000815260040180806020018281038252602a8152602001807f33303120656c20494420696e6772657361646f206e6f2065786973746520706181526020017f726120656c207061676f0000000000000000000000000000000000000000000081525060400191505060405180910390fd5b6000600354111515610b90576040517f08c379a00000000000000000000000000000000000000000000000000000000081526004018080602001828103825260178152602001807f333032202d204e6f2068617920696e766572736f72657300000000000000000081525060200191505060405180910390fd5b600182815481101515610b9f57fe5b906000526020600020906005020160020160009054906101000a900460ff16151515610c33576040517f08c379a00000000000000000000000000000000000000000000000000000000081526004018080602001828103825260198152602001807f333033202d20536f6c696369747564207961207061676164610000000000000081525060200191505060405180910390fd5b6002600354811515610c4157fe5b04600183815481101515610c5157fe5b906000526020600020906005020160010154111515610c6f57600080fd5b600182815481101515610c7e57fe5b906000526020600020906005020160020160019054906101000a900473ffffffffffffffffffffffffffffffffffffffff1673ffffffffffffffffffffffffffffffffffffffff166108fc600184815481101515610cd857fe5b9060005260206000209060050201600001549081150290604051600060405180830381858888f19350505050158015610d15573d6000803e3d6000fd5b5060018083815481101515610d2657fe5b906000526020600020906005020160020160006101000a81548160ff0219169083151502179055505050565b6000606060405190810160405280603381526020017f30303031202d20536f6c6f20656c2062656e65666963696172696f207075656481526020017f6520637265617220736f6c6963697475646573000000000000000000000000008152506000809054906101000a900473ffffffffffffffffffffffffffffffffffffffff1673ffffffffffffffffffffffffffffffffffffffff163373ffffffffffffffffffffffffffffffffffffffff161481901515610eaa576040517f08c379a00000000000000000000000000000000000000000000000000000000081526004018080602001828103825283818151815260200191508051906020019080838360005b83811015610e6f578082015181840152602081019050610e54565b50505050905090810190601f168015610e9c5780820380516001836020036101000a031916815260200191505b509250505060405180910390fd5b50600060018060a0604051908101604052808a8152602001600081526020016000151581526020018973ffffffffffffffffffffffffffffffffffffffff16815260200188888080601f016020809104026020016040519081016040528093929190818152602001838380828437600081840152601f19601f8201169050808301925050505050505081525090806001815401808255809150509060018203906000526020600020906005020160009091929091909150600082015181600001556020820151816001015560408201518160020160006101000a81548160ff02191690831515021790555060608201518160020160016101000a81548173ffffffffffffffffffffffffffffffffffffffff021916908373ffffffffffffffffffffffffffffffffffffffff1602179055506080820151816003019080519060200190610ff89291906114fa565b5050500390508092505050949350505050565b60035481565b6000809054906101000a900473ffffffffffffffffffffffffffffffffffffffff1681565b606060405190810160405280602a81526020017f34303031202d20536f6c6f20656c20656d707265736172696f206c612070756581526020017f64652063616d62696172000000000000000000000000000000000000000000008152506000809054906101000a900473ffffffffffffffffffffffffffffffffffffffff1673ffffffffffffffffffffffffffffffffffffffff163373ffffffffffffffffffffffffffffffffffffffff16148190151561118c576040517f08c379a00000000000000000000000000000000000000000000000000000000081526004018080602001828103825283818151815260200191508051906020019080838360005b83811015611151578082015181840152602081019050611136565b50505050905090810190601f16801561117e5780820380516001836020036101000a031916815260200191505b509250505060405180910390fd5b50816002819055505050565b60025481565b606060405190810160405280603781526020017f303033202d20536f6c6f20656c2062656e65666963696172696f20707565646581526020017f207472616e73666572697220656c2070726f796563746f0000000000000000008152506000809054906101000a900473ffffffffffffffffffffffffffffffffffffffff1673ffffffffffffffffffffffffffffffffffffffff163373ffffffffffffffffffffffffffffffffffffffff1614819015156112f4576040517f08c379a00000000000000000000000000000000000000000000000000000000081526004018080602001828103825283818151815260200191508051906020019080838360005b838110156112b957808201518184015260208101905061129e565b50505050905090810190601f1680156112e65780820380516001836020036101000a031916815260200191505b509250505060405180910390fd5b50600073ffffffffffffffffffffffffffffffffffffffff168273ffffffffffffffffffffffffffffffffffffffff161415151561133157600080fd5b8173ffffffffffffffffffffffffffffffffffffffff166000809054906101000a900473ffffffffffffffffffffffffffffffffffffffff1673ffffffffffffffffffffffffffffffffffffffff167f8be0079c531659141344cd1fd0a4f28419497f9722a3daafe3b4186f6b6457e060405160405180910390a3816000806101000a81548173ffffffffffffffffffffffffffffffffffffffff021916908373ffffffffffffffffffffffffffffffffffffffff1602179055505050565b6001818154811015156113ff57fe5b90600052602060002090600502016000915090508060000154908060010154908060020160009054906101000a900460ff16908060020160019054906101000a900473ffffffffffffffffffffffffffffffffffffffff1690806003018054600181600116156101000203166002900480601f0160208091040260200160405190810160405280929190818152602001828054600181600116156101000203166002900480156114f05780601f106114c5576101008083540402835291602001916114f0565b820191906000526020600020905b8154815290600101906020018083116114d357829003601f168201915b5050505050905085565b828054600181600116156101000203166002900490600052602060002090601f016020900481019282601f1061153b57805160ff1916838001178555611569565b82800160010185558215611569579182015b8281111561156857825182559160200191906001019061154d565b5b509050611576919061157a565b5090565b61159c91905b80821115611598576000816000905550600101611580565b5090565b9056fea165627a7a72305820dae17618fb461d551b06e40b61c55dca7916d47f2ad7bf493f2d5d46a66b1adb0029a165627a7a723058209068be7c683747041f06540ec474ee9e50e99b56c56e37367de5db61bf01e2410029",
  "source": "pragma solidity ^0.5.0;\nimport \"./Ownable.sol\";\n\ncontract FactoryProyectoInversion is Ownable{\n    address[] public contratosDeployados;\n    \n    function crarProyectoInversion(uint _contribucionMinima) public returns (address){\n        ProyectoInversion pi = new ProyectoInversion(_contribucionMinima, msg.sender);\n        address piAddress = address(pi);\n        contratosDeployados.push(piAddress);\n        return piAddress;\n    }\n\n    function obtenerContratosPI() public view returns (address[] memory) {\n        return contratosDeployados;\n    }\n}\n\n/**\n * @title ProyectoInversion\n * @dev El beneficiario de la inversión da alta un nuevo proyecto en la plataforma\n * de Crowfounding y los inversores aportan dinero en caso que les guste el proyecto.\n * El dinero no se libera al beneficiario, sino que queda almacenado en el contrato, \n * luego el beneficiario crea Solicitudes de Pago para pagarle a algún proveedor \n * necesario para ejecutar el proyectos y los inversores votan para liberar o no el\n * pago. \n */\ncontract ProyectoInversion is Ownable{\n    struct SolicitudPago {\n        uint monto;\n        uint votosFavor;\n        bool completo;  \n        address payable proveedor;\n        string descripcion;        \n        mapping(address => bool) votantes;\n    }\n    SolicitudPago[] public solicitudes;\n\n    uint public contribucionMinima;\n    uint public cantidadInversores;\n    mapping(address => bool) public inversores;\n    \n\n    constructor(uint _contribucionMinima, address payable _empresario) public {\n        owner = _empresario;\n        contribucionMinima = _contribucionMinima;\n        cantidadInversores = 0;\n    }\n   \n   /**\n   * @dev Setea la contribución mínima del proyecto\n   */\n    function setContribucionMinima(uint _contribucionMinima) public onlyOwner(\"4001 - Solo el empresario la puede cambiar\") {\n        contribucionMinima = _contribucionMinima;\n    }\n\n   /**\n   * @dev Le permite a un suario invertir en el proyecto. La convierte en inversora.\n   */\n    function invertir() external payable {\n        require(msg.value >= contribucionMinima, \"101 - Intenta invertir menos que la contribución mínima\");\n        if (!inversores[msg.sender]){\n            cantidadInversores++; \n        }\n        inversores[msg.sender] = true;\n    }\n\n    /**\n    * @dev El beneficiario de la inversión crea una solicitud de Pago\n    * @param _monto Dirección del proveedor\n    * @param _proveedor Dirección del proveedor\n    * @return {\n        \"_id\": \"ID de la solcitud de depósito\"\n      }\n    */\n    function crearSolicitudPago(uint _monto, address payable _proveedor, string calldata _descripcion) external \n       onlyOwner(\"0001 - Solo el beneficiario puede crear solicitudes\") returns (uint){  \n        //El método push devuevle la nueva longitud del array\n       uint id = solicitudes.push(SolicitudPago(_monto, 0, false, _proveedor, _descripcion)) - 1;\n       return id;\n    }\n\n    /**\n    * @dev Cualquiera de los inversores solicita la aprobación del pago\n    */\n    function aprobarSolicitudPago(uint _idSolicitud) external {\n        require(inversores[msg.sender], \"200 - Usted no es inversor para aprobar\");\n        require(_idSolicitud < solicitudes.length, \"201 el ID ingresado no existe\");\n        require(!solicitudes[_idSolicitud].votantes[msg.sender], \"202 - Usted ya votó esta propuesta\");\n        solicitudes[_idSolicitud].votantes[msg.sender] = true;\n        solicitudes[_idSolicitud].votosFavor++;\n    }\n\n    /**\n     * @dev Una vez que se han obtenido todas las aprobaciones, el beneficiario\n     * de la inversión \n     */\n    function pagar(uint _idSolicitud) external payable onlyOwner(\"0002 - Usted no es le beneficiario\"){\n        require(_idSolicitud < solicitudes.length, \"301 el ID ingresado no existe para el pago\");\n        require(cantidadInversores > 0, \"302 - No hay inversores\");\n        require(!solicitudes[_idSolicitud].completo, \"303 - Solicitud ya pagada\");\n        require(solicitudes[_idSolicitud].votosFavor > (cantidadInversores / 2));\n        solicitudes[_idSolicitud].proveedor.transfer(solicitudes[_idSolicitud].monto);\n        solicitudes[_idSolicitud].completo = true;\n    }\n\n}",
  "sourcePath": "/home/diego/src/github/dmerniestic1987/MTIC2018_GUI_Ejemplos/react/crowfounding-dapp/contracts/FactoryProyectoInversion.sol",
  "compiler": {
    "name": "solc",
    "version": "0.5.0+commit.1d4f565a.Emscripten.clang"
  },
  "schemaVersion": "3.0.0",
  "updatedAt": "2019-01-27T17:40:50.056Z",
  "devdoc": {
    "methods": {
      "transferOwnership(address)": {
        "details": "Allows the current owner to transfer control of the contract to a newOwner.",
        "params": {
          "newOwner": "The address to transfer ownership to."
        }
      }
    }
  },
  "userdoc": {
    "methods": {}
  }
}