{
  "contractName": "ProyectoInversion",
  "abi": [
    {
      "constant": true,
      "inputs": [
        {
          "name": "",
          "type": "uint256"
        }
      ],
      "name": "inversores",
      "outputs": [
        {
          "name": "",
          "type": "address"
        }
      ],
      "payable": false,
      "stateMutability": "view",
      "type": "function",
      "signature": "0x565e1410"
    },
    {
      "constant": true,
      "inputs": [],
      "name": "owner",
      "outputs": [
        {
          "name": "",
          "type": "address"
        }
      ],
      "payable": false,
      "stateMutability": "view",
      "type": "function",
      "signature": "0x8da5cb5b"
    },
    {
      "constant": true,
      "inputs": [],
      "name": "contribucionMinima",
      "outputs": [
        {
          "name": "",
          "type": "uint256"
        }
      ],
      "payable": false,
      "stateMutability": "view",
      "type": "function",
      "signature": "0xb6ca07a9"
    },
    {
      "constant": false,
      "inputs": [
        {
          "name": "newOwner",
          "type": "address"
        }
      ],
      "name": "transferOwnership",
      "outputs": [],
      "payable": false,
      "stateMutability": "nonpayable",
      "type": "function",
      "signature": "0xf2fde38b"
    },
    {
      "constant": true,
      "inputs": [
        {
          "name": "",
          "type": "uint256"
        }
      ],
      "name": "solicitudes",
      "outputs": [
        {
          "name": "id",
          "type": "uint256"
        },
        {
          "name": "monto",
          "type": "uint256"
        },
        {
          "name": "proveedor",
          "type": "address"
        },
        {
          "name": "descripcion",
          "type": "string"
        },
        {
          "name": "completo",
          "type": "bool"
        }
      ],
      "payable": false,
      "stateMutability": "view",
      "type": "function",
      "signature": "0xfd91c7d4"
    },
    {
      "inputs": [],
      "payable": false,
      "stateMutability": "nonpayable",
      "type": "constructor",
      "signature": "constructor"
    },
    {
      "anonymous": false,
      "inputs": [
        {
          "indexed": true,
          "name": "previousOwner",
          "type": "address"
        },
        {
          "indexed": true,
          "name": "newOwner",
          "type": "address"
        }
      ],
      "name": "OwnershipTransferred",
      "type": "event",
      "signature": "0x8be0079c531659141344cd1fd0a4f28419497f9722a3daafe3b4186f6b6457e0"
    },
    {
      "constant": false,
      "inputs": [
        {
          "name": "_contribucionMinima",
          "type": "uint256"
        }
      ],
      "name": "setContribucionMinima",
      "outputs": [],
      "payable": false,
      "stateMutability": "nonpayable",
      "type": "function",
      "signature": "0xa00ed478"
    },
    {
      "constant": false,
      "inputs": [],
      "name": "invertir",
      "outputs": [],
      "payable": true,
      "stateMutability": "payable",
      "type": "function",
      "signature": "0x008fe49d"
    },
    {
      "constant": false,
      "inputs": [
        {
          "name": "_monto",
          "type": "uint256"
        },
        {
          "name": "_proveedor",
          "type": "address"
        },
        {
          "name": "_descripcion",
          "type": "string"
        }
      ],
      "name": "crearSolicitudPago",
      "outputs": [
        {
          "name": "",
          "type": "uint256"
        }
      ],
      "payable": false,
      "stateMutability": "nonpayable",
      "type": "function",
      "signature": "0x41e2a54c"
    },
    {
      "constant": false,
      "inputs": [],
      "name": "aprobarSolicitudPago",
      "outputs": [],
      "payable": false,
      "stateMutability": "nonpayable",
      "type": "function",
      "signature": "0x548dba60"
    },
    {
      "constant": false,
      "inputs": [],
      "name": "pagar",
      "outputs": [],
      "payable": false,
      "stateMutability": "nonpayable",
      "type": "function",
      "signature": "0xe5dff594"
    }
  ],
  "bytecode": "0x608060405234801561001057600080fd5b50336000806101000a81548173ffffffffffffffffffffffffffffffffffffffff021916908373ffffffffffffffffffffffffffffffffffffffff160217905550336000806101000a81548173ffffffffffffffffffffffffffffffffffffffff021916908373ffffffffffffffffffffffffffffffffffffffff160217905550655af3107a4000600181905550610e72806100ad6000396000f3fe6080604052600436106100a3576000357c0100000000000000000000000000000000000000000000000000000000900463ffffffff1680628fe49d146100a857806341e2a54c146100b2578063548dba6014610176578063565e14101461018d5780638da5cb5b14610208578063a00ed4781461025f578063b6ca07a91461029a578063e5dff594146102c5578063f2fde38b146102dc578063fd91c7d41461032d575b600080fd5b6100b061042d565b005b3480156100be57600080fd5b50610160600480360360608110156100d557600080fd5b8101908080359060200190929190803573ffffffffffffffffffffffffffffffffffffffff1690602001909291908035906020019064010000000081111561011c57600080fd5b82018360208201111561012e57600080fd5b8035906020019184600183028401116401000000008311171561015057600080fd5b9091929391929390505050610535565b6040518082815260200191505060405180910390f35b34801561018257600080fd5b5061018b610870565b005b34801561019957600080fd5b506101c6600480360360208110156101b057600080fd5b8101908080359060200190929190505050610878565b604051808273ffffffffffffffffffffffffffffffffffffffff1673ffffffffffffffffffffffffffffffffffffffff16815260200191505060405180910390f35b34801561021457600080fd5b5061021d6108b6565b604051808273ffffffffffffffffffffffffffffffffffffffff1673ffffffffffffffffffffffffffffffffffffffff16815260200191505060405180910390f35b34801561026b57600080fd5b506102986004803603602081101561028257600080fd5b81019080803590602001909291905050506108db565b005b3480156102a657600080fd5b506102af6108e5565b6040518082815260200191505060405180910390f35b3480156102d157600080fd5b506102da6108eb565b005b3480156102e857600080fd5b5061032b600480360360208110156102ff57600080fd5b81019080803573ffffffffffffffffffffffffffffffffffffffff169060200190929190505050610a45565b005b34801561033957600080fd5b506103666004803603602081101561035057600080fd5b8101908080359060200190929190505050610c97565b604051808681526020018581526020018473ffffffffffffffffffffffffffffffffffffffff1673ffffffffffffffffffffffffffffffffffffffff1681526020018060200183151515158152602001828103825284818151815260200191508051906020019080838360005b838110156103ee5780820151818401526020810190506103d3565b50505050905090810190601f16801561041b5780820380516001836020036101000a031916815260200191505b50965050505050505060405180910390f35b60015434101515156104cd576040517f08c379a00000000000000000000000000000000000000000000000000000000081526004018080602001828103825260398152602001807f313031202d20496e74656e746120696e766572746972206d656e6f732071756581526020017f206c6120636f6e74726962756369c3b36e206dc3ad6e696d610000000000000081525060400191505060405180910390fd5b60023390806001815401808255809150509060018203906000526020600020016000909192909190916101000a81548173ffffffffffffffffffffffffffffffffffffffff021916908373ffffffffffffffffffffffffffffffffffffffff16021790555050565b6000606060405190810160405280603381526020017f30303031202d20536f6c6f20656c2062656e65666963696172696f207075656481526020017f6520637265617220736f6c6963697475646573000000000000000000000000008152506000809054906101000a900473ffffffffffffffffffffffffffffffffffffffff1673ffffffffffffffffffffffffffffffffffffffff163373ffffffffffffffffffffffffffffffffffffffff16148190151561068d576040517f08c379a00000000000000000000000000000000000000000000000000000000081526004018080602001828103825283818151815260200191508051906020019080838360005b83811015610652578082015181840152602081019050610637565b50505050905090810190601f16801561067f5780820380516001836020036101000a031916815260200191505b509250505060405180910390fd5b5060008585858942604051602001808673ffffffffffffffffffffffffffffffffffffffff1673ffffffffffffffffffffffffffffffffffffffff166c01000000000000000000000000028152601401858580828437808301925050508381526020018281526020019550505050505060405160208183030381529060405280519060200120600190049050600360a0604051908101604052808381526020018981526020018873ffffffffffffffffffffffffffffffffffffffff16815260200187878080601f016020809104026020016040519081016040528093929190818152602001838380828437600081840152601f19601f8201169050808301925050505050505081526020016000151581525090806001815401808255809150509060018203906000526020600020906005020160009091929091909150600082015181600001556020820151816001015560408201518160020160006101000a81548173ffffffffffffffffffffffffffffffffffffffff021916908373ffffffffffffffffffffffffffffffffffffffff1602179055506060820151816003019080519060200190610842929190610da1565b5060808201518160040160006101000a81548160ff0219169083151502179055505050505050949350505050565b600033905050565b60028181548110151561088757fe5b906000526020600020016000915054906101000a900473ffffffffffffffffffffffffffffffffffffffff1681565b6000809054906101000a900473ffffffffffffffffffffffffffffffffffffffff1681565b8060018190555050565b60015481565b606060405190810160405280602281526020017f30303032202d205573746564206e6f206573206c652062656e6566696369617281526020017f696f0000000000000000000000000000000000000000000000000000000000008152506000809054906101000a900473ffffffffffffffffffffffffffffffffffffffff1673ffffffffffffffffffffffffffffffffffffffff163373ffffffffffffffffffffffffffffffffffffffff161481901515610a41576040517f08c379a00000000000000000000000000000000000000000000000000000000081526004018080602001828103825283818151815260200191508051906020019080838360005b83811015610a065780820151818401526020810190506109eb565b50505050905090810190601f168015610a335780820380516001836020036101000a031916815260200191505b509250505060405180910390fd5b5050565b606060405190810160405280603781526020017f303033202d20536f6c6f20656c2062656e65666963696172696f20707565646581526020017f207472616e73666572697220656c2070726f796563746f0000000000000000008152506000809054906101000a900473ffffffffffffffffffffffffffffffffffffffff1673ffffffffffffffffffffffffffffffffffffffff163373ffffffffffffffffffffffffffffffffffffffff161481901515610b9b576040517f08c379a00000000000000000000000000000000000000000000000000000000081526004018080602001828103825283818151815260200191508051906020019080838360005b83811015610b60578082015181840152602081019050610b45565b50505050905090810190601f168015610b8d5780820380516001836020036101000a031916815260200191505b509250505060405180910390fd5b50600073ffffffffffffffffffffffffffffffffffffffff168273ffffffffffffffffffffffffffffffffffffffff1614151515610bd857600080fd5b8173ffffffffffffffffffffffffffffffffffffffff166000809054906101000a900473ffffffffffffffffffffffffffffffffffffffff1673ffffffffffffffffffffffffffffffffffffffff167f8be0079c531659141344cd1fd0a4f28419497f9722a3daafe3b4186f6b6457e060405160405180910390a3816000806101000a81548173ffffffffffffffffffffffffffffffffffffffff021916908373ffffffffffffffffffffffffffffffffffffffff1602179055505050565b600381815481101515610ca657fe5b90600052602060002090600502016000915090508060000154908060010154908060020160009054906101000a900473ffffffffffffffffffffffffffffffffffffffff1690806003018054600181600116156101000203166002900480601f016020809104026020016040519081016040528092919081815260200182805460018160011615610100020316600290048015610d845780601f10610d5957610100808354040283529160200191610d84565b820191906000526020600020905b815481529060010190602001808311610d6757829003601f168201915b5050505050908060040160009054906101000a900460ff16905085565b828054600181600116156101000203166002900490600052602060002090601f016020900481019282601f10610de257805160ff1916838001178555610e10565b82800160010185558215610e10579182015b82811115610e0f578251825591602001919060010190610df4565b5b509050610e1d9190610e21565b5090565b610e4391905b80821115610e3f576000816000905550600101610e27565b5090565b9056fea165627a7a72305820fb7d7fd06b6a980899bf728c137f37305d1e67bc20527c1e05617b2e01abcc7a0029",
  "source": "pragma solidity ^0.5.0;\nimport \"./Ownable.sol\";\n\n/**\n * @title ProyectoInversion\n * @dev El beneficiario de la inversión da alta un nuevo proyecto en la plataforma\n * de Crowfounding y los inversores aportan dinero en caso que les guste el proyecto.\n * El dinero no se libera al beneficiario, sino que queda almacenado en el contrato, \n * luego el beneficiario crea Solicitudes de Pago para pagarle a algún proveedor \n * necesario para ejecutar el proyectos y los inversores votan para liberar o no el\n * pago. \n */\ncontract ProyectoInversion is Ownable{\n    struct SolicitudPago {\n        uint id;\n        uint monto;\n        address payable proveedor;\n        string descripcion;\n        bool completo;\n    }\n\n    uint public contribucionMinima;\n    address payable[] public inversores;\n    SolicitudPago[] public solicitudes;\n\n    constructor() public {\n        owner = msg.sender;\n        contribucionMinima = 0.0001 ether;\n    }\n   \n   /**\n   * @dev Setea la contribución mínima del proyecto\n   */\n    function setContribucionMinima(uint _contribucionMinima) public {\n        contribucionMinima = _contribucionMinima;\n    }\n\n   /**\n   * @dev Le permite a un suario invertir en el proyecto. La convierte en inversora.\n   */\n    function invertir() external payable {\n        require(msg.value >= contribucionMinima, \"101 - Intenta invertir menos que la contribución mínima\");\n        inversores.push(msg.sender);\n    }\n\n    /**\n    * @dev El beneficiario de la inversión crea una solicitud de Pago\n    * @param _monto Dirección del proveedor\n    * @param _proveedor Dirección del proveedor\n    * @return {\n        \"_id\": \"ID de la solcitud de depósito\"\n      }\n    */\n    function crearSolicitudPago(uint _monto, address payable _proveedor, string calldata _descripcion) external \n        onlyOwner(\"0001 - Solo el beneficiario puede crear solicitudes\") returns (uint){\n\n       uint id = uint(keccak256((abi.encodePacked(_proveedor,_descripcion,_monto, now))));          \n       solicitudes.push(SolicitudPago(id, _monto, _proveedor, _descripcion, false));\n    }\n\n    /**\n    * @dev Cualquiera de los inversores solicita la aprobación del pago\n    */\n    function aprobarSolicitudPago() external {\n        address payable aprobador = msg.sender;\n    }\n\n    /**\n     * @dev Una vez que se han obtenido todas las aprobaciones, el beneficiario\n     * de la inversión \n     */\n    function pagar() external onlyOwner(\"0002 - Usted no es le beneficiario\"){\n\n    }\n\n}",
  "sourcePath": "/home/diego/src/github/dmerniestic1987/MTIC2018_GUI_Ejemplos/react/crowfounding-dapp/contracts/ProyectoInversion.sol",
  "compiler": {
    "name": "solc",
    "version": "0.5.0+commit.1d4f565a.Emscripten.clang"
  },
  "schemaVersion": "3.0.0",
  "updatedAt": "2019-01-25T15:29:30.797Z",
  "devdoc": {
    "details": "El beneficiario de la inversión da alta un nuevo proyecto en la plataforma de Crowfounding y los inversores aportan dinero en caso que les guste el proyecto. El dinero no se libera al beneficiario, sino que queda almacenado en el contrato,  luego el beneficiario crea Solicitudes de Pago para pagarle a algún proveedor  necesario para ejecutar el proyectos y los inversores votan para liberar o no el pago. ",
    "methods": {
      "aprobarSolicitudPago()": {
        "details": "Cualquiera de los inversores solicita la aprobación del pago"
      },
      "crearSolicitudPago(uint256,address,string)": {
        "details": "El beneficiario de la inversión crea una solicitud de Pago",
        "params": {
          "_monto": "Dirección del proveedor",
          "_proveedor": "Dirección del proveedor"
        },
        "return": "{ \"_id\": \"ID de la solcitud de depósito\" }"
      },
      "invertir()": {
        "details": "Le permite a un suario invertir en el proyecto. La convierte en inversora."
      },
      "pagar()": {
        "details": "Una vez que se han obtenido todas las aprobaciones, el beneficiario de la inversión "
      },
      "setContribucionMinima(uint256)": {
        "details": "Setea la contribución mínima del proyecto"
      },
      "transferOwnership(address)": {
        "details": "Allows the current owner to transfer control of the contract to a newOwner.",
        "params": {
          "newOwner": "The address to transfer ownership to."
        }
      }
    },
    "title": "ProyectoInversion"
  },
  "userdoc": {
    "methods": {}
  }
}