{
  "contractName": "ProyectoInversion",
  "abi": [
    {
      "constant": true,
      "inputs": [
        {
          "name": "",
          "type": "address"
        }
      ],
      "name": "inversores",
      "outputs": [
        {
          "name": "",
          "type": "bool"
        }
      ],
      "payable": false,
      "stateMutability": "view",
      "type": "function"
    },
    {
      "constant": true,
      "inputs": [],
      "name": "cantidadInversores",
      "outputs": [
        {
          "name": "",
          "type": "uint256"
        }
      ],
      "payable": false,
      "stateMutability": "view",
      "type": "function"
    },
    {
      "constant": true,
      "inputs": [],
      "name": "owner",
      "outputs": [
        {
          "name": "",
          "type": "address"
        }
      ],
      "payable": false,
      "stateMutability": "view",
      "type": "function"
    },
    {
      "constant": true,
      "inputs": [],
      "name": "totalRequerido",
      "outputs": [
        {
          "name": "",
          "type": "uint256"
        }
      ],
      "payable": false,
      "stateMutability": "view",
      "type": "function"
    },
    {
      "constant": true,
      "inputs": [],
      "name": "contribucionMinima",
      "outputs": [
        {
          "name": "",
          "type": "uint256"
        }
      ],
      "payable": false,
      "stateMutability": "view",
      "type": "function"
    },
    {
      "constant": false,
      "inputs": [
        {
          "name": "newOwner",
          "type": "address"
        }
      ],
      "name": "transferOwnership",
      "outputs": [],
      "payable": false,
      "stateMutability": "nonpayable",
      "type": "function"
    },
    {
      "constant": true,
      "inputs": [
        {
          "name": "",
          "type": "uint256"
        }
      ],
      "name": "solicitudes",
      "outputs": [
        {
          "name": "monto",
          "type": "uint256"
        },
        {
          "name": "votosFavor",
          "type": "uint256"
        },
        {
          "name": "completo",
          "type": "bool"
        },
        {
          "name": "proveedor",
          "type": "address"
        },
        {
          "name": "descripcion",
          "type": "string"
        }
      ],
      "payable": false,
      "stateMutability": "view",
      "type": "function"
    },
    {
      "inputs": [
        {
          "name": "_contribucionMinima",
          "type": "uint256"
        },
        {
          "name": "_total_requerido",
          "type": "uint256"
        },
        {
          "name": "_empresario",
          "type": "address"
        }
      ],
      "payable": false,
      "stateMutability": "nonpayable",
      "type": "constructor"
    },
    {
      "anonymous": false,
      "inputs": [
        {
          "indexed": true,
          "name": "_owner",
          "type": "address"
        },
        {
          "indexed": false,
          "name": "_inversor_number",
          "type": "uint256"
        }
      ],
      "name": "InvertirEvent",
      "type": "event"
    },
    {
      "anonymous": false,
      "inputs": [
        {
          "indexed": false,
          "name": "_votos_favor",
          "type": "uint256"
        }
      ],
      "name": "AprobarSolicitudEvent",
      "type": "event"
    },
    {
      "anonymous": false,
      "inputs": [
        {
          "indexed": true,
          "name": "_proveedor",
          "type": "address"
        },
        {
          "indexed": false,
          "name": "_monto",
          "type": "uint256"
        },
        {
          "indexed": false,
          "name": "_votos_favor",
          "type": "uint256"
        }
      ],
      "name": "PagarEvent",
      "type": "event"
    },
    {
      "anonymous": false,
      "inputs": [
        {
          "indexed": true,
          "name": "previousOwner",
          "type": "address"
        },
        {
          "indexed": true,
          "name": "newOwner",
          "type": "address"
        }
      ],
      "name": "OwnershipTransferred",
      "type": "event"
    },
    {
      "constant": false,
      "inputs": [
        {
          "name": "_contribucionMinima",
          "type": "uint256"
        }
      ],
      "name": "setContribucionMinima",
      "outputs": [],
      "payable": false,
      "stateMutability": "nonpayable",
      "type": "function"
    },
    {
      "constant": false,
      "inputs": [],
      "name": "invertir",
      "outputs": [],
      "payable": true,
      "stateMutability": "payable",
      "type": "function"
    },
    {
      "constant": false,
      "inputs": [
        {
          "name": "_monto",
          "type": "uint256"
        },
        {
          "name": "_proveedor",
          "type": "address"
        },
        {
          "name": "_descripcion",
          "type": "string"
        }
      ],
      "name": "crearSolicitudPago",
      "outputs": [
        {
          "name": "",
          "type": "uint256"
        }
      ],
      "payable": false,
      "stateMutability": "nonpayable",
      "type": "function"
    },
    {
      "constant": false,
      "inputs": [
        {
          "name": "_idSolicitud",
          "type": "uint256"
        }
      ],
      "name": "aprobarSolicitudPago",
      "outputs": [],
      "payable": false,
      "stateMutability": "nonpayable",
      "type": "function"
    },
    {
      "constant": false,
      "inputs": [
        {
          "name": "_idSolicitud",
          "type": "uint256"
        }
      ],
      "name": "pagar",
      "outputs": [],
      "payable": true,
      "stateMutability": "payable",
      "type": "function"
    }
  ],
  "bytecode": "0x608060405234801561001057600080fd5b506040516060806118a28339810180604052606081101561003057600080fd5b81019080805190602001909291908051906020019092919080519060200190929190505050336000806101000a81548173ffffffffffffffffffffffffffffffffffffffff021916908373ffffffffffffffffffffffffffffffffffffffff160217905550806000806101000a81548173ffffffffffffffffffffffffffffffffffffffff021916908373ffffffffffffffffffffffffffffffffffffffff160217905550826003819055506000600481905550816002819055505050506117a5806100fd6000396000f3fe6080604052600436106100b9576000357c0100000000000000000000000000000000000000000000000000000000900463ffffffff1680628fe49d146100be578063129f76a6146100c857806328569467146101315780633aa6d2081461016c57806341e2a54c1461019a578063707643811461025e5780638da5cb5b14610289578063a00ed478146102e0578063b0a688be1461031b578063b6ca07a914610346578063f2fde38b14610371578063fd91c7d4146103c2575b600080fd5b6100c66104c2565b005b3480156100d457600080fd5b50610117600480360360208110156100eb57600080fd5b81019080803573ffffffffffffffffffffffffffffffffffffffff169060200190929190505050610693565b604051808215151515815260200191505060405180910390f35b34801561013d57600080fd5b5061016a6004803603602081101561015457600080fd5b81019080803590602001909291905050506106b3565b005b6101986004803603602081101561018257600080fd5b8101908080359060200190929190505050610a1b565b005b3480156101a657600080fd5b50610248600480360360608110156101bd57600080fd5b8101908080359060200190929190803573ffffffffffffffffffffffffffffffffffffffff1690602001909291908035906020019064010000000081111561020457600080fd5b82018360208201111561021657600080fd5b8035906020019184600183028401116401000000008311171561023857600080fd5b9091929391929390505050610f26565b6040518082815260200191505060405180910390f35b34801561026a57600080fd5b506102736111df565b6040518082815260200191505060405180910390f35b34801561029557600080fd5b5061029e6111e5565b604051808273ffffffffffffffffffffffffffffffffffffffff1673ffffffffffffffffffffffffffffffffffffffff16815260200191505060405180910390f35b3480156102ec57600080fd5b506103196004803603602081101561030357600080fd5b810190808035906020019092919050505061120a565b005b34801561032757600080fd5b5061033061136c565b6040518082815260200191505060405180910390f35b34801561035257600080fd5b5061035b611372565b6040518082815260200191505060405180910390f35b34801561037d57600080fd5b506103c06004803603602081101561039457600080fd5b81019080803573ffffffffffffffffffffffffffffffffffffffff169060200190929190505050611378565b005b3480156103ce57600080fd5b506103fb600480360360208110156103e557600080fd5b81019080803590602001909291905050506115ca565b60405180868152602001858152602001841515151581526020018373ffffffffffffffffffffffffffffffffffffffff1673ffffffffffffffffffffffffffffffffffffffff16815260200180602001828103825283818151815260200191508051906020019080838360005b83811015610483578082015181840152602081019050610468565b50505050905090810190601f1680156104b05780820380516001836020036101000a031916815260200191505b50965050505050505060405180910390f35b6003543410151515610562576040517f08c379a00000000000000000000000000000000000000000000000000000000081526004018080602001828103825260398152602001807f313031202d20496e74656e746120696e766572746972206d656e6f732071756581526020017f206c6120636f6e74726962756369c3b36e206dc3ad6e696d610000000000000081525060400191505060405180910390fd5b600560003373ffffffffffffffffffffffffffffffffffffffff1673ffffffffffffffffffffffffffffffffffffffff16815260200190815260200160002060009054906101000a900460ff1615156105c8576004600081548092919060010191905055505b6001600560003373ffffffffffffffffffffffffffffffffffffffff1673ffffffffffffffffffffffffffffffffffffffff16815260200190815260200160002060006101000a81548160ff0219169083151502179055506000809054906101000a900473ffffffffffffffffffffffffffffffffffffffff1673ffffffffffffffffffffffffffffffffffffffff167fa14749d6af14c642f3d3f05112fd0b480f086739744f9755b949f54547c674e36004546040518082815260200191505060405180910390a2565b60056020528060005260406000206000915054906101000a900460ff1681565b600560003373ffffffffffffffffffffffffffffffffffffffff1673ffffffffffffffffffffffffffffffffffffffff16815260200190815260200160002060009054906101000a900460ff16151561079a576040517f08c379a00000000000000000000000000000000000000000000000000000000081526004018080602001828103825260278152602001807f323030202d205573746564206e6f20657320696e766572736f7220706172612081526020017f6170726f6261720000000000000000000000000000000000000000000000000081525060400191505060405180910390fd5b60018054905081101515610816576040517f08c379a000000000000000000000000000000000000000000000000000000000815260040180806020018281038252601d8152602001807f32303120656c20494420696e6772657361646f206e6f2065786973746500000081525060200191505060405180910390fd5b60018181548110151561082557fe5b906000526020600020906005020160040160003373ffffffffffffffffffffffffffffffffffffffff1673ffffffffffffffffffffffffffffffffffffffff16815260200190815260200160002060009054906101000a900460ff1615151561091c576040517f08c379a00000000000000000000000000000000000000000000000000000000081526004018080602001828103825260238152602001807f323032202d20557374656420796120766f74c3b320657374612070726f70756581526020017f737461000000000000000000000000000000000000000000000000000000000081525060400191505060405180910390fd5b6001808281548110151561092c57fe5b906000526020600020906005020160040160003373ffffffffffffffffffffffffffffffffffffffff1673ffffffffffffffffffffffffffffffffffffffff16815260200190815260200160002060006101000a81548160ff0219169083151502179055506001818154811015156109a057fe5b9060005260206000209060050201600101600081548092919060010191905055507fe554a5d9dff69cab0296b96b7729d1d703bcdb4f4aba5737c6ac5fc309759dcb6001828154811015156109f157fe5b9060005260206000209060050201600101546040518082815260200191505060405180910390a150565b606060405190810160405280602281526020017f30303032202d205573746564206e6f206573206c652062656e6566696369617281526020017f696f0000000000000000000000000000000000000000000000000000000000008152506000809054906101000a900473ffffffffffffffffffffffffffffffffffffffff1673ffffffffffffffffffffffffffffffffffffffff163373ffffffffffffffffffffffffffffffffffffffff161481901515610b71576040517f08c379a00000000000000000000000000000000000000000000000000000000081526004018080602001828103825283818151815260200191508051906020019080838360005b83811015610b36578082015181840152602081019050610b1b565b50505050905090810190601f168015610b635780820380516001836020036101000a031916815260200191505b509250505060405180910390fd5b5060018054905082101515610c14576040517f08c379a000000000000000000000000000000000000000000000000000000000815260040180806020018281038252602a8152602001807f33303120656c20494420696e6772657361646f206e6f2065786973746520706181526020017f726120656c207061676f0000000000000000000000000000000000000000000081525060400191505060405180910390fd5b6000600454111515610c8e576040517f08c379a00000000000000000000000000000000000000000000000000000000081526004018080602001828103825260178152602001807f333032202d204e6f2068617920696e766572736f72657300000000000000000081525060200191505060405180910390fd5b600182815481101515610c9d57fe5b906000526020600020906005020160020160009054906101000a900460ff16151515610d31576040517f08c379a00000000000000000000000000000000000000000000000000000000081526004018080602001828103825260198152602001807f333033202d20536f6c696369747564207961207061676164610000000000000081525060200191505060405180910390fd5b6002600454811515610d3f57fe5b04600183815481101515610d4f57fe5b906000526020600020906005020160010154111515610d6d57600080fd5b600182815481101515610d7c57fe5b906000526020600020906005020160020160019054906101000a900473ffffffffffffffffffffffffffffffffffffffff1673ffffffffffffffffffffffffffffffffffffffff166108fc600184815481101515610dd657fe5b9060005260206000209060050201600001549081150290604051600060405180830381858888f19350505050158015610e13573d6000803e3d6000fd5b5060018083815481101515610e2457fe5b906000526020600020906005020160020160006101000a81548160ff021916908315150217905550600182815481101515610e5b57fe5b906000526020600020906005020160020160019054906101000a900473ffffffffffffffffffffffffffffffffffffffff1673ffffffffffffffffffffffffffffffffffffffff167fc079ffc99421198b5274e704081294acfc5f89b58a54f6941a8de30bc8e45f07600184815481101515610ed357fe5b906000526020600020906005020160000154600185815481101515610ef457fe5b906000526020600020906005020160010154604051808381526020018281526020019250505060405180910390a25050565b6000606060405190810160405280603381526020017f30303031202d20536f6c6f20656c2062656e65666963696172696f207075656481526020017f6520637265617220736f6c6963697475646573000000000000000000000000008152506000809054906101000a900473ffffffffffffffffffffffffffffffffffffffff1673ffffffffffffffffffffffffffffffffffffffff163373ffffffffffffffffffffffffffffffffffffffff16148190151561107e576040517f08c379a00000000000000000000000000000000000000000000000000000000081526004018080602001828103825283818151815260200191508051906020019080838360005b83811015611043578082015181840152602081019050611028565b50505050905090810190601f1680156110705780820380516001836020036101000a031916815260200191505b509250505060405180910390fd5b50600060018060a0604051908101604052808a8152602001600081526020016000151581526020018973ffffffffffffffffffffffffffffffffffffffff16815260200188888080601f016020809104026020016040519081016040528093929190818152602001838380828437600081840152601f19601f8201169050808301925050505050505081525090806001815401808255809150509060018203906000526020600020906005020160009091929091909150600082015181600001556020820151816001015560408201518160020160006101000a81548160ff02191690831515021790555060608201518160020160016101000a81548173ffffffffffffffffffffffffffffffffffffffff021916908373ffffffffffffffffffffffffffffffffffffffff16021790555060808201518160030190805190602001906111cc9291906116d4565b5050500390508092505050949350505050565b60045481565b6000809054906101000a900473ffffffffffffffffffffffffffffffffffffffff1681565b606060405190810160405280602a81526020017f34303031202d20536f6c6f20656c20656d707265736172696f206c612070756581526020017f64652063616d62696172000000000000000000000000000000000000000000008152506000809054906101000a900473ffffffffffffffffffffffffffffffffffffffff1673ffffffffffffffffffffffffffffffffffffffff163373ffffffffffffffffffffffffffffffffffffffff161481901515611360576040517f08c379a00000000000000000000000000000000000000000000000000000000081526004018080602001828103825283818151815260200191508051906020019080838360005b8381101561132557808201518184015260208101905061130a565b50505050905090810190601f1680156113525780820380516001836020036101000a031916815260200191505b509250505060405180910390fd5b50816003819055505050565b60025481565b60035481565b606060405190810160405280603781526020017f303033202d20536f6c6f20656c2062656e65666963696172696f20707565646581526020017f207472616e73666572697220656c2070726f796563746f0000000000000000008152506000809054906101000a900473ffffffffffffffffffffffffffffffffffffffff1673ffffffffffffffffffffffffffffffffffffffff163373ffffffffffffffffffffffffffffffffffffffff1614819015156114ce576040517f08c379a00000000000000000000000000000000000000000000000000000000081526004018080602001828103825283818151815260200191508051906020019080838360005b83811015611493578082015181840152602081019050611478565b50505050905090810190601f1680156114c05780820380516001836020036101000a031916815260200191505b509250505060405180910390fd5b50600073ffffffffffffffffffffffffffffffffffffffff168273ffffffffffffffffffffffffffffffffffffffff161415151561150b57600080fd5b8173ffffffffffffffffffffffffffffffffffffffff166000809054906101000a900473ffffffffffffffffffffffffffffffffffffffff1673ffffffffffffffffffffffffffffffffffffffff167f8be0079c531659141344cd1fd0a4f28419497f9722a3daafe3b4186f6b6457e060405160405180910390a3816000806101000a81548173ffffffffffffffffffffffffffffffffffffffff021916908373ffffffffffffffffffffffffffffffffffffffff1602179055505050565b6001818154811015156115d957fe5b90600052602060002090600502016000915090508060000154908060010154908060020160009054906101000a900460ff16908060020160019054906101000a900473ffffffffffffffffffffffffffffffffffffffff1690806003018054600181600116156101000203166002900480601f0160208091040260200160405190810160405280929190818152602001828054600181600116156101000203166002900480156116ca5780601f1061169f576101008083540402835291602001916116ca565b820191906000526020600020905b8154815290600101906020018083116116ad57829003601f168201915b5050505050905085565b828054600181600116156101000203166002900490600052602060002090601f016020900481019282601f1061171557805160ff1916838001178555611743565b82800160010185558215611743579182015b82811115611742578251825591602001919060010190611727565b5b5090506117509190611754565b5090565b61177691905b8082111561177257600081600090555060010161175a565b5090565b9056fea165627a7a72305820ab8cf4e67cfdf598a52b2c5329a2fe7edad404690fb22b69983d8fdb0775b6c80029",
  "source": "pragma solidity ^0.5.0;\nimport \"./Ownable.sol\";\n\ncontract FactoryProyectoInversion is Ownable{\n    address[] public contratosDeployados;\n    \n    event ContratoCreadoEvent( address indexed _contract_address,\n                               address indexed _owner);\n\n    function crearProyectoInversion(uint _contribucionMinima, uint _total_requerido) public{\n        ProyectoInversion pi = new ProyectoInversion(_contribucionMinima, _total_requerido, msg.sender);\n        address piAddress = address(pi);\n        contratosDeployados.push(piAddress);\n        emit ContratoCreadoEvent(piAddress, owner);\n    }\n\n    function obtenerContratosPI() public view returns (address[] memory) {\n        return contratosDeployados;\n    }\n}\n\n/**\n * @title ProyectoInversion\n * @dev El beneficiario de la inversión da alta un nuevo proyecto en la plataforma\n * de Crowfounding y los inversores aportan dinero en caso que les guste el proyecto.\n * El dinero no se libera al beneficiario, sino que queda almacenado en el contrato, \n * luego el beneficiario crea Solicitudes de Pago para pagarle a algún proveedor \n * necesario para ejecutar el proyectos y los inversores votan para liberar o no el\n * pago. \n */\ncontract ProyectoInversion is Ownable{\n    struct SolicitudPago {\n        uint monto;\n        uint votosFavor;\n        bool completo;  \n        address payable proveedor;\n        string descripcion;        \n        mapping(address => bool) votantes;\n    }\n    SolicitudPago[] public solicitudes;\n    uint public totalRequerido;\n    uint public contribucionMinima;\n    uint public cantidadInversores;\n    mapping(address => bool) public inversores;\n    \n    event InvertirEvent(address indexed _owner, uint _inversor_number);\n    event AprobarSolicitudEvent(uint _votos_favor);\n    event PagarEvent(address indexed _proveedor, uint _monto, uint _votos_favor);\n\n    constructor(uint _contribucionMinima, uint _total_requerido, address payable _empresario) public {\n        owner = _empresario;\n        contribucionMinima = _contribucionMinima;\n        cantidadInversores = 0;\n        totalRequerido = _total_requerido;\n    }\n   \n   /**\n   * @dev Setea la contribución mínima del proyecto\n   */\n    function setContribucionMinima(uint _contribucionMinima) public onlyOwner(\"4001 - Solo el empresario la puede cambiar\") {\n        contribucionMinima = _contribucionMinima;\n    }\n\n   /**\n   * @dev Le permite a un suario invertir en el proyecto. La convierte en inversora.\n   */\n    function invertir() external payable {\n        require(msg.value >= contribucionMinima, \"101 - Intenta invertir menos que la contribución mínima\");\n        if (!inversores[msg.sender]){\n            cantidadInversores++; \n        }\n        inversores[msg.sender] = true;\n        emit InvertirEvent(owner, cantidadInversores);\n    }\n\n    /**\n    * @dev El beneficiario de la inversión crea una solicitud de Pago\n    * @param _monto Dirección del proveedor\n    * @param _proveedor Dirección del proveedor\n    * @return {\n        \"_id\": \"ID de la solcitud de depósito\"\n      }\n    */\n    function crearSolicitudPago(uint _monto, address payable _proveedor, string calldata _descripcion) external \n       onlyOwner(\"0001 - Solo el beneficiario puede crear solicitudes\") returns (uint){  \n        //El método push devuevle la nueva longitud del array\n       uint id = solicitudes.push(SolicitudPago(_monto, 0, false, _proveedor, _descripcion)) - 1;\n       return id;\n    }\n\n    /**\n    * @dev Cualquiera de los inversores solicita la aprobación del pago\n    */\n    function aprobarSolicitudPago(uint _idSolicitud) external {\n        require(inversores[msg.sender], \"200 - Usted no es inversor para aprobar\");\n        require(_idSolicitud < solicitudes.length, \"201 el ID ingresado no existe\");\n        require(!solicitudes[_idSolicitud].votantes[msg.sender], \"202 - Usted ya votó esta propuesta\");\n        solicitudes[_idSolicitud].votantes[msg.sender] = true;\n        solicitudes[_idSolicitud].votosFavor++;\n        emit AprobarSolicitudEvent(solicitudes[_idSolicitud].votosFavor);\n    }\n\n    /**\n     * @dev Una vez que se han obtenido todas las aprobaciones, el beneficiario\n     * de la inversión \n     */\n    function pagar(uint _idSolicitud) external payable onlyOwner(\"0002 - Usted no es le beneficiario\"){\n        require(_idSolicitud < solicitudes.length, \"301 el ID ingresado no existe para el pago\");\n        require(cantidadInversores > 0, \"302 - No hay inversores\");\n        require(!solicitudes[_idSolicitud].completo, \"303 - Solicitud ya pagada\");\n        require(solicitudes[_idSolicitud].votosFavor > (cantidadInversores / 2));\n        solicitudes[_idSolicitud].proveedor.transfer(solicitudes[_idSolicitud].monto);\n        solicitudes[_idSolicitud].completo = true;\n        emit PagarEvent( solicitudes[_idSolicitud].proveedor\n                       , solicitudes[_idSolicitud].monto\n                       , solicitudes[_idSolicitud].votosFavor);\n    }\n\n}",
  "sourcePath": "/home/diego/src/github/dmerniestic1987/MTIC2018_GUI_Ejemplos/react/crowfounding-dapp/contracts/FactoryProyectoInversion.sol",
  "compiler": {
    "name": "solc",
    "version": "0.5.0+commit.1d4f565a.Emscripten.clang"
  },
  "schemaVersion": "3.0.0",
  "updatedAt": "2019-01-28T20:58:12.177Z",
  "devdoc": {
    "details": "El beneficiario de la inversión da alta un nuevo proyecto en la plataforma de Crowfounding y los inversores aportan dinero en caso que les guste el proyecto. El dinero no se libera al beneficiario, sino que queda almacenado en el contrato,  luego el beneficiario crea Solicitudes de Pago para pagarle a algún proveedor  necesario para ejecutar el proyectos y los inversores votan para liberar o no el pago. ",
    "methods": {
      "aprobarSolicitudPago(uint256)": {
        "details": "Cualquiera de los inversores solicita la aprobación del pago"
      },
      "crearSolicitudPago(uint256,address,string)": {
        "details": "El beneficiario de la inversión crea una solicitud de Pago",
        "params": {
          "_monto": "Dirección del proveedor",
          "_proveedor": "Dirección del proveedor"
        },
        "return": "{ \"_id\": \"ID de la solcitud de depósito\" }"
      },
      "invertir()": {
        "details": "Le permite a un suario invertir en el proyecto. La convierte en inversora."
      },
      "pagar(uint256)": {
        "details": "Una vez que se han obtenido todas las aprobaciones, el beneficiario de la inversión "
      },
      "setContribucionMinima(uint256)": {
        "details": "Setea la contribución mínima del proyecto"
      },
      "transferOwnership(address)": {
        "details": "Allows the current owner to transfer control of the contract to a newOwner.",
        "params": {
          "newOwner": "The address to transfer ownership to."
        }
      }
    },
    "title": "ProyectoInversion"
  },
  "userdoc": {
    "methods": {}
  }
}